S02200005553425F466C6173685F50726F6772616D6D65725F786D6567612E73726563DF
S113000004C1000027C1000025C1000023C1000075
S113001021C100001FC100001DC100001BC1000060
S113002019C1000017C1000015C1000013C1000070
S113003011C100000FC100000DC100000BC1000080
S113004009C1000007C1000005C1000003C1000090
S113005001C10000FFC00000FDC00000FBC00000A3
S1130060F9C00000F7C00000F5C00000F3C00000B4
S1130070F1C00000EFC00000EDC00000EBC00000C4
S1130080E9C00000E7C00000E5C00000E3C00000D4
S1130090E1C00000DFC00000DDC00000DBC00000E4
S11300A0D9C00000D7C00000D5C00000D3C00000F4
S11300B0D1C00000CFC00000CDC00000CBC0000004
S11300C0C9C00000C7C00000C5C00000C3C0000014
S11300D0C1C00000BFC00000BDC00000BBC0000024
S11300E0B9C00000B7C00000B5C00000B3C0000034
S11300F0B1C00000AFC00000ADC00000ABC0000044
S1130100A9C00000A7C00000A5C00000A3C0000053
S1130110A1C000009FC000009DC000009BC0000063
S113012099C0000097C0000095C0000093C0000073
S113013091C000008FC000008DC000008BC0000083
S113014089C0000087C0000085C0000083C0000093
S113015081C000007FC000007DC000007BC00000A3
S113016079C0000077C0000075C0000073C00000B3
S113017071C000006FC000006DC000006BC00000C3
S113018069C0000067C0000065C0000063C00000D3
S113019061C000005FC000005DC000005BC00000E3
S11301A059C0000057C0000055C0000053C00000F3
S11301B051C000004FC000004DC000004BC0000003
S11301C049C0000047C0000045C0000043C0000013
S11301D041C000003FC000003DC000003BC0000023
S11301E039C0000037C0000035C0000033C0000033
S11301F031C000000C947F0F0C944210750A780AE9
S11302007B0A7E0A810A840A870A11241FBECFEF63
S1130210CDBFDFE3DEBF00E00CBF18BE19BE1ABEBF
S11302201BBE11E2A0E0B0E2E0EFF9E200E00BBF98
S113023002C007900D92A639B107D9F71BBE24E27C
S1130240A6E9B1E201C01D92A531B207E1F761D17F
S11302500C94F614D5CE90E087C4089568E083E04A
S11302600E948911E0E4F6E080EB818380E48283DC
S113027080ED8093C00808958093C308E0ECF8E013
S113028082818823ECF78091C308089580E0F4CF3D
S11302900895CF93DF93C62FD72FEEDF8D2FECDF9A
S11302A08C2FEADFDF91CF9108951F93CF93DF93D3
S11302B0C0E4D6E010E11D831E8385E0DDDFE6DFC8
S11302C01D83DF91CF911F91089586ED90E20E94E6
S11302D03212E0E4F6E080E18583868386E0CCDFB9
S11302E0E4DF81FFFDCF80E1809345060895CF923E
S11302F0DF92EF92FF921F93CF93DF936B017C0108
S1130300D4DF80FDFDCFE1DFC0E4D6E010E11D8342
S11303101E8380E2B1DFC701B601BBDF1D83DF911D
S1130320CF911F91FF90EF90DF90CF9008955F924F
S11303306F927F928F929F92AF92BF92CF92DF92F1
S1130340EF92FF920F931F93CF93DF93CDB7DEB756
S11303506097CDBFDEBF6B017C01A7DF80FDFDCFC1
S1130360E0E4F6E080E18583868383E085DFC701EE
S1130370B6018FDF6894772475F8CE0101964C019D
S11303805E0191E1A90EB11C582C692C0F2EF6EEDA
S1130390CF2EF0E2DF2EF02D25C078DFF801819317
S11303A08F011F928F93DF92CF920E941A120F90A7
S11303B00F900F900F900A151B0579F789E090E0D4
S11303C00E942D12F70181917F0190E00E942D126D
S11303D0EA14FB04B9F786E091E20E9432127A949F
S11303E0772021F07401052D162DD7CF80E180935D
S11303F045066096CDBFDEBFDF91CF911F910F916F
S1130400FF90EF90DF90CF90BF90AF909F908F9030
S11304107F906F905F900895CF92DF92EF92FF925A
S1130420CF93DF936B017C01EA013FDF80FDFDCFB9
S11304304CDFE0E4F6E080E18583868382E01CDF24
S1130440C701B60126DF8881882329F0219614DFAD
S113045089918111FCCF80E180934506DF91CF9192
S1130460FF90EF90DF90CF9008958CEE90E20E9481
S113047032121BDF1F928F938CE791E29F938F932D
S11304800E941A128BEF90E20E94321260E070E137
S113049080E090E02CDF88E091E20E94321260E07C
S11304A070E180E090E043DF89E291E20E94321241
S11304B047E351E260E070E180E090E0ADDF85E584
S11304C091E20E94321260E070E180E090E02FDF60
S11304D0ECDE1F928F9386E791E29F938F930E94A5
S11304E01A128DB79EB708968DBF9EBF089581E0FE
S11304F008950895CF93DF93AED2EC01992734D3B6
S1130500C13619F48FEF80939621DF91CF9108952E
S1130510089580E180934506F8940E944A110DD411
S11305209DDE80E090E2809311249093122487E072
S11305308093A2007894809196218823E1F395DF3B
S113054010929621F8CF8091AC2281508093AC22F6
S1130550089580E0089580E008958091F923882328
S1130560CCF480768032B9F58091FA238132A9F5F2
S11305708091FF2390910024079789F5E9EFF3E236
S11305808AEB92E28087918787E090E08287938765
S113059081E008958076803221F58091FA238032BB
S11305A021F0823201F180E008958091FF2390913F
S11305B000240797D1F4E9EFF3E287EF92E0848710
S11305C095878AEB92E28087918787E090E0828723
S11305D0938781E0089580E0089580E0089580E0A5
S11305E0089580E0089581E0089580E008950895D5
S11305F01092AC221092B8221092B922EEEAF2E2E2
S113060081EA808380E281831282138214821582BC
S113061082E090E08683978310861186EAEBF2E20B
S113062080E092ECA1E0B0E080839183A283B38365
S11306301482158288E086835ADF882329F09091FA
S1130640AC229F5F9093AC220895FF920F931F9367
S1130650CF93DF931F92CDB7DEB780919A2181119A
S11306609EC00E94450D882351F000919B2110915A
S11306709C210E94520D0817190759F490C000914B
S11306809B2110919C210E944D0D0817190709F414
S113069086C08FB78983F894198100919D21E02F3A
S11306A0F0E0EE0FFF1FE256FE4D80819181892B11
S11306B009F5809197219091982101968093972133
S11306C0909398210E94450D811107C08091972134
S11306D0909198218436910558F00E94450D882305
S11306E049F080919721909198218032934010F4A1
S11306F01FBF55C010929721109298218091992183
S1130700811106C081E0011180E080939D2104C025
S113071081E0011180E0082F81E080939A211FBFBE
S113072010E0F801EE0FFF1FE256FE4DFF24F39494
S1130730808191818034910509F4F12CFF2091F09E
S11307400E94450D882339F00E94520D80939B210D
S113075090939C210BC00E944D0D80939B219093FC
S11307609C2104C010929B2110929C21F801EE0F51
S1130770FF1FE256FE4D20813181A80100245695C9
S113078047950794569547950794542F402D4E55F9
S11307905E4D09ED13E06F2D81E80E94360E0F9037
S11307A0DF91CF911F910F91FF90089580E04DCF7D
S11307B00895811119C020919D2181E090E02223A8
S11307C011F080E090E0880F991FFC01E256FE4D85
S11307D0108211821092992110929A21672B11F0A4
S11307E080E096DE80E031CF08958091AB22815085
S11307F08093AB228091AB227CDE1092AA220895D2
S1130800CF93DF931F92CDB7DEB78FB78983F89468
S113081049812091232230912422E0912522F0E085
S1130820EE0FFF1FEA5DFD4D808191814FBF821B5A
S1130830930B0F90DF91CF910895E2DF21E0892B94
S113084009F420E0822F08950F931F93CF93DF9331
S11308501F92CDB7DEB78FB78983F8949981209121
S1130860252280912222811110C06091232270914F
S11308702422022F10E0F801EE0FFF1FEA5DFD4D68
S1130880408151816417750718F49FBF80E027C029
S1130890109223221092242281E0211180E080937F
S11308A0252281E0809322229FBF80E0C6DF882337
S11308B011F080E01FDEA8010024569547950794A7
S11308C0569547950794542F402D465D5D4D07EA94
S11308D014E020E430E061E082E00E94360E0F90E4
S11308E0DF91CF911F910F9108951092AB22109236
S11308F09A211092992110929D21EEE9F1E2108241
S113090011821282138210929B2110929C2180E00A
S11309109CDE1092222210922522E6E2F2E210825C
S1130920118212821382109223221092242280E0D8
S11309308BDF882359F09091AB229F5F9093AB2279
S11309409091AB22913011F49093AA2208950F93C1
S11309501F93811129C080912522E1E08111E0E0FB
S1130960842F61157105A9F4F0E00024F695E7954C
S11309700794F695E7950794FE2FE02DAF01465DA9
S11309805D4D07EA14E020E430E061E00E94360E99
S11309900BC0F0E0EE0FFF1FEA5DFD4D6083718335
S11309A01092222280E050DF1F910F910895EF9260
S11309B0FF921F93CF93DF931F92CDB7DEB711E061
S11309C08091C022893009F010E040E050E08FB7F8
S11309D08983F894A9812091232230912422809143
S11309E0252290E0FC01EE0FFF1FEA5DFD4D6081C2
S11309F07181AFBF2617370730F08091AA22811189
S1130A00E6CF90E021C0FC010024F695E795079419
S1130A10F695E7950794FE2FE02DE20FF31FE65DB0
S1130A20FD4D80817A01E82A2F5F3F4F20932322D6
S1130A303093242280E008DF112321F05E2D442727
S1130A4010E0C5CF8E2D9F2D0F90DF91CF911F9178
S1130A50FF90EF90089580E0AACF0895CF93DF939D
S1130A601F92CDB7DEB78FB78983F89499818091AF
S1130A709D21E82FF0E0EE0FFF1FE256FE4D20818E
S1130A8031812034310589F440919A2141110DC0FE
S1130A9040919921411109C021E0209399218111AC
S1130AA020E020939D2120E030E09FBF80E490E08F
S1130AB0821B930B0F90DF91CF910895CFDF21E03C
S1130AC0892B09F420E0822F0895FF920F931F933E
S1130AD0CF93DF931F92CDB7DEB7F62E172F01E029
S1130AE08091C022893009F000E080E0E7DF8111C5
S1130AF007C08091AA228111F8CF80E090E02DC038
S1130B008FB78983F8942981E0919D21F0E0DF017A
S1130B10AA0FBB1FA256BE4D8D919C911197AC019B
S1130B204F5F5F4F4D935C930024F695E7950794D0
S1130B30F695E7950794FE2FE02D8E0F9F1FFC017D
S1130B40EE55FE4DF0822FBF002329F0F12E110F38
S1130B50110B00E0CACF81E090E00F90DF91CF91BC
S1130B601F910F91FF900895BC0180E0AECF0895CE
S1130B70E091C622F091C7220190F081E02D2281FC
S1130B8033812E0F3F1FFC014081E40FF11DE2175A
S1130B90F307B8F481818430B9F0861309C005C025
S1130BA081818430A1F0861303C08E2F9F2F089576
S1130BB08081E80FF11DE217F30790F380E090E0E5
S1130BC0089580E090E0089580E090E0089580E04A
S1130BD090E008958091FB238F7759C708959091F1
S1130BE0C822992381F1E091C622F091C722019095
S1130BF0F081E02D9481891740F5E093C422F093AD
S1130C00C522228133812E0F3F1FE217F307F8F428
S1130C109181943061F49281981309C09381961361
S1130C2006C0E093C422F093C52281E00895908128
S1130C30E90FF11DE217F30758F3E093C422F09390
S1130C40C52280E0089580E0089580E0089580E062
S1130C500895EF92FF921F93CF93DF93C82F60E024
S1130C60BEDF182F882381F1A091C622B091C7223C
S1130C70EC2FF0E0EE0FFF1F12968D919C911397CD
S1130C80E80FF91FE080F180D7011696ED91FC91F1
S1130C9017971995682F8C2FA2DF182F8823A1F09E
S1130CA0C091C422D091C52265E0CE0161DFEC0180
S1130CB0892B21F08A810E94460FF6CFD701129624
S1130CC0ED91FC9113971995812FDF91CF911F918D
S1130CD0FF90EF9008951F93CF93DF93182F7FDF3A
S1130CE0882339F1C091C422D091C52265E0CE0198
S1130CF03FDFEC01892B41F04C815D816B818A815E
S1130D00DBD68111F3CF15C0A091C622B091C722C2
S1130D10E12FF0E0EE0FFF1F12968D919C91139737
S1130D20E80FF91F0190F081E02D0190F081E02D92
S1130D301995DF91CF911F91089525C60895CF93FA
S1130D408091C8228823C1F0E091C622F091C72285
S1130D500190F081E02D8481882371F0C0E08C2F14
S1130D6078DFCF5FE091C622F091C7220190F08135
S1130D70E02D8481C81798F31092C82281E090E096
S1130D808093CC229093CD22CF910895CF938091DC
S1130D90C822882349F1A091C622B091C722ED91BF
S1130DA0FC91119784818823F9F0C0E0EC2FF0E0E6
S1130DB0EE0FFF1F12968D919C911397E80FF91F68
S1130DC00190F081E02D0084F185E02D309709F049
S1130DD01995CF5FA091C622B091C722ED91FC91E5
S1130DE011978481C81710F3CF9108950F931F931F
S1130DF0CF93DF93E9EFF3E2128613861486158608
S1130E0016861786808188230CF063C22091FF2305
S1130E10309100242115310509F056C251C28F7159
S1130E2009F0A7C09091FA23963079F0983009F42C
S1130E3096C091119EC02230310509F0CAC162E00A
S1130E4070E08CEC92E231D64DC28091FB239091FC
S1130E50FC23292F332722303105A9F024F4213033
S1130E60310541F0ADC123303105D9F12F303105C1
S1130E7051F1A6C18091722090917320DC016C9194
S1130E8070E013D65DC0E0917220F0917320218947
S1130E90821708F09EC19927880F991F880F991F00
S1130EA0E0917420F0917520E80FF91F8081918101
S1130EB0FC0162817381F9D5E0910124F09102244F
S1130EC082E081833DC080917620909177200097C5
S1130ED009F47FC1DC0112966D917C911397E5D5DD
S1130EE02FC099278130910591F058F082309105F7
S1130EF009F4F4C1039709F06CC127E08DE891E28D
S1130F0009C064E070E08EE690E2CFD519C08BE5AD
S1130F1090E222E1382FA4E2B0E2E82FF92F819188
S1130F2090E08D939D938E2F831B8217C0F3622FC5
S1130F30660F6E5F6093222070E082E290E2B5D586
S1130F40E9EFF3E28681978122853385821793073F
S1130F5008F0C8C18093032490930424C3C12130B2
S1130F60310509F036C161E070E088EC92E29DD56C
S1130F70B9C18130E1F59091FA239A30C1F521305D
S1130F80310509F026C18091C822882309F421C1C2
S1130F90C091FD23D091FE230091C6221091C72257
S1130FA0D801ED91FC918481C81708F012C160E06A
S1130FB08C2F15DE882309F40CC1CE019927880FE4
S1130FC0991FD8011296ED91FC911397E80FF91F20
S1130FD00190F081E02D86819781FC011995809321
S1130FE0CA2261E070E08AEC92E25FD57BC1823074
S1130FF009F0EFC08091FA238111E4C02230310559
S113100009F0E7C08091FD23DFD590E08093C222F0
S11310109093C32262E070E082EC92E246D562C112
S11310208F7109F083C09091FA23933009F4CCC0F6
S113103018F49130A1F07AC0953019F0993039F153
S113104075C08091FF2390910024892B09F0C1C0C1
S11310508AEE95E0809305249093062443C1809101
S1131060FF2390910024892B09F0B3C08091FB23C6
S11310709091FC23019709F0ACC08091CC2290910F
S1131080CD228D7F8093CC229093CD222BC1809151
S1131090FF2390910024892B09F09BC0FBD4882363
S11310A009F497C02091FB233091FC233327E0916E
S11310B07220F0917320818990E08217930708F4DD
S11310C088C03DDE8091FB239091FC238093C8224D
S11310D0882309F407C199278150904C880F991FE0
S11310E0880F991FE0917420F0917520E80FF91F83
S11310F0E093C622F093C7220190F081E02D848111
S1131100882309F4EFC0C0E060E08C2FE4DD88237D
S113111009F45FC0CF5FE091C622F091C72201902D
S1131120F081E02D8481C81778F3DCC08130E1F4CC
S11311309091FA239B30C1F48091FF239091002475
S1131140892B09F046C08091C822882309F441C044
S1131150E9EFF3E2C481D2818C2F7BDD8823C9F1CE
S11311606D2F8C2FB8DD33C0823099F58091FA232E
S1131170813019F0833089F029C08091FF23909148
S11311800024892B31F58091FB239091FC23892B3A
S113119001F58091FD2333D51AC08091FF239091EE
S11311A00024892BB1F48091FB239091FC23892B9B
S11311B081F4C9EFD3E28C8120D68C8183D607C019
S11311C080E005C080E003C080E001C080E08111C0
S11311D08AC08091F9238F71813071F58091C82282
S11311E0882351F10091FD231091FE23C091C62262
S11311F0D091C722E881F98184810817E8F460E07E
S1131200802FEDDC8823C1F0F801FF27CF01880F80
S1131210991FEA81FB81E80FF91FC081D181EE811A
S1131220FF811995682F802FDADC882329F0EC815F
S1131230FD811995811157C08091F9238F718230F6
S113124009F040C08091C8228823B1F1A091C62240
S1131250B091C722ED91FC9111978481882371F19B
S1131260C0E0EC2FF0E0EE0FFF1F12968D919C91E1
S11312701397E80FF91F00811181D8011696ED919B
S1131280FC9117971995682F8C2FA9DC882359F1A5
S1131290D8011496ED91FC9115971995811123C0ED
S11312A0CF5FA091C622B091C722ED91FC91119716
S11312B09481C917B0F217C080E015C080E013C054
S11312C080E011C080E00FC0982F907609F081CFA4
S11312D0A6CD982F907609F07CCFA2CE22E188E4A7
S11312E090E218CE81E0DF91CF911F910F91089584
S11312F0CF93DF931F921F92CDB7DEB7811126C023
S11313009091F8239923F9F090910A24911101C046
S1131310FFCF9FB79A83F8942A81E9E0F4E29181A0
S1131320915091832FBF0FC090910A249F3F09F4DD
S1131330FFCF9FB79983F8942981E9E0F4E2918182
S11313409F5F91832FBF8093F82305C09091F8236A
S1131350992351F3F8CF0F900F90DF91CF91089517
S11313600F93E8ECF4E080818F7D808380818F7D12
S11313708083ECECF3E202E005931092CE2310920A
S1131380CF2300E2069300E40693E4ECF3E200E4E6
S11313900693E9EFF3E214861586168617861286FD
S11313A013861092B7230F9108950F9385E08093CD
S11313B0B723EDECF3E204E00593E5ECF3E204E09B
S11313C005930F9108950F9383E08093B7231092B0
S11313D0CE231092CF23ECECF3E202E006930F91BC
S11313E00895E0910524F0910624309709F01995A9
S11313F008950F93CF93DF938091B723833019F42B
S1131400F0DFAEDF5EC08091B3239091B423C0912E
S11314100324D0910424C81BD90B71F52091B52362
S11314203091B623820F931F8093B5239093B623F4
S11314302091FF23309100248217930721F080919B
S1131440CE22882341F084E08093B723E4ECF3E2D6
S113145002E0069336C0E0910724F0910824309707
S113146099F01995882381F01092B3231092B42334
S1131470C0910324D0910424C034D10528F01092E3
S1131480CE22C0E4D0E003C081E08093CE22E8EB1A
S1131490F3E2C68BD78B8091B3239091B423209130
S11314A0012430910224280F391F208F318FC80F57
S11314B0D91FC093B323D093B423ECECF3E202E03E
S11314C00693DF91CF910F910895FC018181E82F5C
S11314D0E7708E2F90E0FC013197E730F105D0F4EE
S11314E08827E250FF4F8F4F93C780E190E0089523
S11314F080E290E0089580E490E0089580E890E030
S1131500089580E091E0089580E092E008958FEFDF
S113151093E0089588E090E00895282F2F7030E03C
S1131520220F331F082E000C990B8827990F881F50
S11315309927820F931F02979C01220F331F220FBA
S1131540331F220F331F820F931F815B9C4D08951D
S11315500F93CF938091CC0480FF64C081E080938B
S1131560CC04E4ECF3E200E80693ECECF3E200E8EC
S113157006938093CA04E4ECF3E200E106938091BD
S1131580B723882329F08350823008F42ADFE8DE69
S11315908091C6239091C723089709F045C088E03D
S11315A0E3E7F3E2A9EFB3E201900D928A95E1F744
S11315B0E8ECF4E0808180628083808180628083B3
S11315C015DCC82F811103C0F0DEC1E02EC080916C
S11315D0F92388236CF41092B5231092B623109249
S11315E0B3231092B42382E08093B72302DF1DC09B
S11315F08091FF2390910024892B11F4E4DE15C01F
S11316001092B5231092B6231092B3231092B423F0
S113161081E08093B723E4ECF3E202E0069300E276
S1131620069303C0C0E001C0C1E08C2FCF910F919D
S113163008958F929F92AF92BF92DF92EF92FF92A2
S11316400F931F93CF93DF93D82E67DF8C01BD2CAC
S1131650BB1CBB24BB1CCD2DCF70D0E0CC0FDD1F39
S1131660CB0DD11DCE01880F991F880F991F880FAC
S1131670991F9C012C533C4D7901C90126DF4C0173
S1131680BB2009F479C0FE01EE0FFF1FEE0FFF1F10
S1131690EE0FFF1FE854FC4D22893389D8011596BB
S11316A08D919C911697820F931F15968D939C9301
S11316B0169713962D913C9114978217930709F46A
S11316C045C0281B390B2115B4E03B0738F02FEF38
S11316D033E0C901B40188D6281B390BF801808195
S11316E081FF09C0C901B4017FD641E0892B09F00B
S11316F040E0842F01C080E0D8019C9180FB91F9E7
S11317009C93FE01EE0FFF1FEE0FFF1FEE0FFF1F56
S1131710E854FC4D128A138A2687378711962D9137
S11317203C91129715968D919C911697820F931F59
S1131730CC0FDD1FCC0FDD1FCC0FDD1FC853DC4DDC
S113174088839983F70102E00693E4C0D8018C9161
S113175081FFCDC08D7F8C93CC0FDD1FCC0FDD1F9F
S1131760CC0FDD1FC854DC4D1A8A1B8A1E861F86C7
S1131770F70102E00693CEC0FE01EE0FFF1FEE0F4D
S1131780FF1FEE0FFF1FE854FC4DA684B784D80159
S11317908C9182FF19C01196ED91FC9112971596C8
S11317A02D913C91169713968D919C911497B401A9
S11317B01BD6B0E4DB9EB001112461577D4DAC0112
S11317C0CF01820F931F2DD6F801258136812A0D72
S11317D03B1D25833683838194818217930768F4A4
S11317E085839683CC0FDD1FCC0FDD1FCC0FDD1F4F
S11317F0C854DC4D8A899B897AC0FE01EE0FFF1F15
S1131800EE0FFF1FEE0FFF1FE854FC4D4289538972
S11318104A155B0509F06BC02817390709F467C03E
S1131820AC01421B530B9A01211554E0350750F0CB
S11318302FEF33E0C901B401D7D5D901A81BB90BE7
S1131840CD0107C0C901B401CFD5F901E81BF90BDB
S1131850CF01FE01EE0FFF1FEE0FFF1FEE0FFF1F64
S1131860E854FC4D168617868815990500F5D801AD
S11318708C9184608C93B0E4DB9EC0011124815769
S11318809D4DFE01EE0FFF1FEE0FFF1FEE0FFF1F1A
S1131890E853FC4D80839183CC0FDD1FCC0FDD1FFB
S11318A0CC0FDD1FC854DC4D8A8A9B8A1CC0F8010A
S11318B04181528125813681240F351FFE01EE0FAF
S11318C0FF1FEE0FFF1FEE0FFF1FE853FC4D208399
S11318D03183CC0FDD1FCC0FDD1FCC0FDD1FC854AF
S11318E0DC4D8A8B9B8BF70102E0069313C0D80171
S11318F08C9180FF0FC08E7F8C931796ED91FC9195
S11319001897309739F015966D917C9116974D2D57
S113191080E01995DF91CF911F910F91FF90EF9087
S1131920DF90BF90AF909F908F9008951F93CF93B7
S1131930DF931F92CDB7DEB78FB78983F8941981EF
S113194081E0D6DCEAECF4E080E4808380E280830A
S1131950E1ECF4E0808181608083A9ECB4E08C91B7
S113196082608C93E8ECF4E08081806480838C91C5
S113197081608C938081806880831FBF0F90DF918A
S1131980CF911F9108950F931F93CF93DF931F92CD
S11319901F92CDB7DEB700E610E0F801108280E3B5
S11319A0CED4E0ECF4E080818064808381E0F801AF
S11319B080838FB78A83F8941A81E8EBF3E2158663
S11319C0158A158E15A215A615AAEFE4F3E28081F7
S11319D08E7F8083E8E5F3E280818E7F8083E1E679
S11319E0F3E280818E7F8083EAE6F3E280818E7F5A
S11319F080836AE170E082E0E7D48F3F19F080933E
S1131A00FA0403C08FE18093FA046BE170E082E092
S1131A10DBD48F3F19F08093FB0403C08FE18093E4
S1131A20FB04E0ECF4E08081826080838081806844
S1131A30808380818061808384EC93E286839783B2
S1131A408081806280838FEF8093C504E8ECF4E0AA
S1131A508081816080831092F82380910E248F3FCF
S1131A6009F4FFCF8FB78983F8949981E9E0F4E210
S1131A7085818F5F85839FBF59DF1FBF0F900F90B4
S1131A80DF91CF911F910F91089580E00895809385
S1131A90C30408958091C30408958091F423909120
S1131AA0F523089580E090E00895E9EFF3E280875C
S1131AB09187628773870895282F2F7030E0220F53
S1131AC0331F082E000C990B8827990F881F99271C
S1131AD0820F931FFC01EE0FFF1FEE0FFF1FEE0F8F
S1131AE0FF1FE854FC4D2585207C09F069C0637014
S1131AF0613011F018F404C020EC03C020E801C0E8
S1131B0020E440385105E9F050F440325105A9F081
S1131B1040345105A1F040315105D9F40CC04115B0
S1131B2032E0530791F04F3F33E0530781F0411502
S1131B30514079F408C041E00DC042E00BC043E0DD
S1131B4009C044E007C045E005C046E003C047E0E3
S1131B5001C040E0FC01EE0FFF1FEE0FFF1FEE0F70
S1131B60FF1FE854FC4D158636E03487242B258767
S1131B70FC01EE0FFF1FEE0FFF1FEE0FFF1FE854D7
S1131B80FC4D2585207C203C69F4FC01EE0FFF1FF1
S1131B90EE0FFF1FEE0FFF1FE854FC4D2585277045
S1131BA0273081F0880F991F880F991F880F991F7C
S1131BB0FC01E854FC4D85858062858781E00895A9
S1131BC080E0089581E00895E82FEF70F0E0EE0FD3
S1131BD0FF1F082E000C990B8827990F881F99273F
S1131BE0E80FF91FEE0FFF1FEE0FFF1FEE0FFF1F91
S1131BF0E854FC4D858582FB882780F908950F936E
S1131C00282F2F7030E0A901440F551F282F082ECC
S1131C10000C330B2227330F221F3327240F351FC9
S1131C20A901440F551F440F551F440F551FFA01B6
S1131C30EC53FC4D01E00693FA01E854FC4D958504
S1131C4092FF11C0FA01E854FC4D95859B7F95875E
S1131C5064DCFC01808180FF06C08E7F8083078066
S1131C60F085E02D199581E00F9108955F926F92B0
S1131C707F928F929F92AF92BF92CF92DF92EF9218
S1131C80FF920F931F93CF93DF931F92CDB7DEB7CD
S1131C90782E662E4A01590140DC6C01572C551CE4
S1131CA05524551C872D8F70E82EF12CEE0CFF1C4B
S1131CB0E50CF11CF701EE0FFF1FEE0FFF1FEE0FF7
S1131CC0FF1FE854FC4D8585807C09F481C0F70131
S1131CD0EE0FFF1FEE0FFF1FEE0FFF1FE854FC4D2A
S1131CE08585807C803C61F0F701EE0FFF1FEE0FCD
S1131CF0FF1FEE0FFF1FE854FC4D858582FD6AC06F
S1131D008FB78983F8948981F601908190FF03C08D
S1131D108FBF512C60C0F6019081916090838FBF7A
S1131D2081829282A382B4821582168207831087ED
S1131D30611006C091E0A114B10419F090E001C053
S1131D4091E0F601808190FB81F98B7F808355209F
S1131D5061F0F701EE0FFF1FEE0FFF1FEE0FFF1FE5
S1131D60E854FC4D128A138A2EC0F701EE0FFF1FB0
S1131D70EE0FFF1FEE0FFF1FE854FC4D8585807C9E
S1131D80803CA1F4C701880F991F880F991F880F01
S1131D90991F8C539C4D99DBBC01C50125D3892B1C
S1131DA029F0F60180818E7F808315C0F701EE0F44
S1131DB0FF1FEE0FFF1FEE0FFF1FE854FC4D1686AA
S1131DC01786128A138A872D34DC5524539403C052
S1131DD0512C01C0512C852D0F90DF91CF911F9173
S1131DE00F91FF90EF90DF90CF90BF90AF909F90B6
S1131DF08F907F906F905F900895FF920F931F9341
S1131E00CF93DF93182FF82EFF1CFF24FF1CC82F3D
S1131E10CF70D0E0CC0FDD1FCF0DD11D7EDBDC01F8
S1131E20FE01EE0FFF1FEE0FFF1FEE0FFF1FEC531F
S1131E30FC4D02E005938C9180FF22C08E7F8C9331
S1131E401796ED91FC9118973097D1F0FF2059F037
S1131E50CC0FDD1FCC0FDD1FCC0FDD1FC854DC4DB4
S1131E606A897B890AC0CC0FDD1FCC0FDD1FCC0F24
S1131E70DD1FC854DC4D6E857F85412F81E01995A7
S1131E80DF91CF911F910F91FF900895CF93C82FA9
S1131E90B4DFEC2FEF70F0E0EE0FFF1F8C2FCC0FB0
S1131EA0990B8827990F881F9927E80FF91FEE0FC0
S1131EB0FF1FEE0FFF1FEE0FFF1FE854FC4D1586AA
S1131EC0CF910895E82FEF70F0E0EE0FFF1F282F59
S1131ED0082E000C330B2227330F221F3327E20F67
S1131EE0F31FEE0FFF1FEE0FFF1FEE0FFF1FE8544F
S1131EF0FC4D95859460958780DF81E008951F925D
S1131F000F920FB60F92112408B60F9218BE09B69D
S1131F100F9219BE0BB60F921BBE0F932F933F93D4
S1131F204F935F936F937F938F939F93AF93BF93DD
S1131F30EF93FF938091CB04882334F480E880935B
S1131F40CA040E94C60686C08091CB0482FF20C0CA
S1131F5084E08093CA048091CC2386FF7BC0809167
S1131F60CC0481FD77C0F4DA811174C08091B72369
S1131F70813011F428DA6EC0843009F06BC0EDECC6
S1131F80F3E204E00593E5ECF3E204E0059362C0B8
S1131F908091CB0481FF59C082E08093CA04809170
S1131FA0C42386FF57C08091CC0481FD53C0D0DA8E
S1131FB0811150C08091B723823041F484E0809332
S1131FC0B723E4ECF3E202E0069344C0833009F063
S1131FD041C0EDECF3E204E00593E5ECF3E204E048
S1131FE0059338C080E18093CA0481E006DF81E86C
S1131FF004DF82E002DF82E800DF0E949F06109285
S1132000C304E8EBF3E2158696E0948783E48587BE
S1132010158A948B858B83E793E2808B918BA0D96F
S113202019C08091CB0486FF06C080E48093CA0463
S113203080E05ED90FC08091CB0485FF0BC080E2A5
S11320408093CA0481E054D905C08091CB0484FDF7
S1132050C9CFE7CFFF91EF91BF91AF919F918F913E
S11320607F916F915F914F913F912F910F910F90BD
S11320700BBE0F9009BE0F9008BE0F900FBE0F90BD
S11320801F9018951F920F920FB60F92112408B645
S11320900F9218BE09B60F9219BE0AB60F921ABE55
S11320A00BB60F921BBE0F931F932F933F934F9327
S11320B05F936F937F938F939F93AF93BF93CF93CC
S11320C0DF93EF93FF938091CC0481FD03C040DA4A
S11320D08111C3C082E08093CC048091C5048195B2
S11320E0880FE4ECF3E2E81BF10920813181245CE0
S11320F03342369527953695279536952795822F21
S1132100869520FD02C090E001C090E8890FE82F79
S1132110EF70F0E0EE0FFF1F282F082E000C330B9A
S11321202227330F221F3327E20FF31FDF01AA0FE9
S1132130BB1FAA0FBB1FAA0FBB1FA854BC4D1C96E4
S11321409C9195FF8AC0EE0FFF1FEE0FFF1FEE0F4D
S1132150FF1FEC53FC4D00E20693811179C080917E
S1132160B723843019F43DD9FBD877C00091C62336
S11321701091C7238091032490910424C091B32328
S1132180D091B4239E01200F311F8217930718F4B6
S11321908C010C1B1D0B8091012490910224A80139
S11321A063E773E28C0F9D1F3CD1C00FD11FC09316
S11321B0B323D093B4230034110569F48091B5237B
S11321C09091B6238C0F9D1F2091FF233091002402
S11321D08217930780F0E9EFF3E2C287D38706847E
S11321E0F785E02D309729F01995811102C0DDD8CB
S11321F034C0E9D832C08091032490910424C817D4
S1132200D907F9F4E0910724F0910824309711F4E8
S1132210CCD823C01995811102C0C7D81EC0209103
S1132220B5233091B6238091B3239091B423820FC8
S1132230931F8093B5239093B6231092B3231092E7
S1132240B423E4ECF3E202E0069300E2069305C053
S1132250803811F4CED801C0ECD9FF91EF91DF9111
S1132260CF91BF91AF919F918F917F916F915F912A
S11322704F913F912F911F910F910F900BBE0F9093
S11322800ABE0F9009BE0F9008BE0F900FBE0F90AC
S11322901F901895CF93DF93CDB7DEB72597CDBFA9
S11322A0DEBF6CE170E082E08FD08A836DE170E084
S11322B082E08AD0898389819A81019621F480E41D
S11322C093E289839A8389819A818B839C83E0E654
S11322D0F0E082838C8183838091510084FD0FC060
S11322E08FB78D83F8949D81E0E5F0E080E18583EC
S11322F08081806180839FBF818184FFFDCF64E002
S113230080E490E06BD02596CDBFDEBFDF91CF9106
S11323100895CF93DF931F92CDB7DEB79FB799830C
S1132320F8949981E82FF0E0E059FF4F609580819F
S1132330682360839FBF0F90DF91CF910895CF935F
S1132340DF931F921F92CDB7DEB7863011F060E0A5
S113235001C068E18091510081FD2AC08FB78A8352
S1132360F8949A81E0E5F0E08081826080839FBFE9
S1132370818181FFFDCF8FB78983F8949981A0E58E
S1132380B0E016968C911697897F16968C931697C3
S1132390E0E6F0E080E885838BEB868316968C91EB
S11323A01697846016968C938081816080839FBF8A
S11323B0636084E490E012D060E480E0AADF0F90D0
S11323C00F90DF91CF9108954091CA01E62FF72F26
S11323D08093CA0184914093CA0108951BBEFC01F5
S11323E028ED24BF60830895AA1BBB1B51E107C0DD
S11323F0AA1FBB1FA617B70710F0A61BB70B881F91
S1132400991F5A95A9F780959095BC01CD0108951F
S1132410EE0FFF1F881F8BBF0790F691E02D1BBEA8
S11324201994FB01DC0102C001900D92415050400F
S1132430D8F70895CF93DF93CDB7DEB7AE014A5FE7
S11324405F4FFA0161917191AF01809111249091D4
S1132450122438D0DF91CF910895609111247091A6
S113246012242EC20F931F93CF93DF93E091112474
S1132470F0911224238121FF1BC08C01D0E0C0E025
S1132480F80181918F016091112470911224DB0174
S11324901896ED91FC911997882331F01995892BA1
S11324A079F3DFEFCFEFECCF8AE01995892B19F0A0
S11324B08FEF9FEF02C08D2F9C2FDF91CF911F9143
S11324C00F9108952F923F924F925F926F927F9255
S11324D08F929F92AF92BF92CF92DF92EF92FF9230
S11324E00F931F93CF93DF93CDB7DEB72C97CDBF58
S11324F0DEBF7C016B018A01FC0116821782838195
S113250081FFB0C1CE0101964C01F7019381F60120
S113251093FD859193FF81916F01882309F49EC1F6
S1132520853239F493FD859193FF81916F01853252
S113253021F4B70190E0C4D1E8CF512C312C20E034
S11325402032A0F48B3269F030F4803259F08332B7
S113255069F420612CC08D3239F0803339F4216064
S113256026C02260246023C0286021C027FD27C024
S113257030ED380F3A3078F426FF06C0FAE05F9E5B
S1132580300D1124532E13C08AE0389E300D1124CF
S1132590332E20620CC08E3221F426FD5FC12064EC
S11325A006C08C3611F4206802C0883641F4F60166
S11325B093FD859193FF81916F018111C1CF982F74
S11325C09F7D9554933028F40C5F1F4FFFE3F983EC
S11325D00DC0833631F0833771F0833509F057C06D
S11325E021C0F801808189830E5F1F4F44244394E6
S11325F0512C540114C03801F2E06F0E711CF80123
S1132600A080B18026FF03C0652D70E002C06FEF8B
S11326107FEFC5012C8749D12C0183012C852F77AD
S1132620222E16C03801F2E06F0E711CF801A08052
S1132630B18026FF03C0652D70E002C06FEF7FEF0D
S1132640C5012C8727D12C012C852068222E8301DB
S113265023FC19C0832D90E048165906A0F4B70155
S113266080E290E02DD13A94F5CFF50127FC8591D5
S113267027FE81915F01B70190E022D131103A9495
S1132680F1E04F1A51084114510479F7DEC0843641
S113269011F0893631F5F80127FF07C06081718197
S11326A0828193810C5F1F4F08C060817181072E66
S11326B0000C880B990B0E5F1F4F2F76722E97FF1D
S11326C009C090958095709561957F4F8F4F9F4F6E
S11326D02068722E2AE030E0A4012AD1A82EA8187E
S11326E043C0853729F42F7EB22E2AE030E025C07E
S11326F0F22FF97FBF2E8F36C1F018F4883579F0A8
S1132700ADC0803719F0883721F0A8C02F2F206181
S1132710B22EB4FE0DC08B2D8460B82E09C024FFE8
S11327200AC09F2F9660B92E06C028E030E005C08D
S113273020E130E002C020E132E0F801B7FE07C03A
S113274060817181828193810C5F1F4F06C060811B
S1132750718180E090E00E5F1F4FA401E9D0A82EA4
S1132760A818FB2DFF777F2E76FE0BC0372D3E7FFA
S1132770A51450F474FE0AC072FC08C0372D3E7EC6
S113278005C0BA2C372D03C0BA2C01C0B52C34FFB8
S11327900DC0FE01EA0DF11D8081803311F4397EF4
S11327A009C032FF06C0B394B39404C0832F867863
S11327B009F0B39433FD12C030FF06C05A2CB31491
S11327C018F4530C5B18B32CB31460F4B70180E213
S11327D090E03C8775D0B3943C85F6CFB31410F4E5
S11327E03B1801C0312C34FF11C0B70180E390E0E5
S11327F03C8766D03C8532FF16C031FD03C088E7B4
S113280090E002C088E590E0B7010CC0832F867881
S113281051F031FF02C08BE201C080E237FD8DE24E
S1132820B70190E04DD0A51430F4B70180E390E0F7
S113283047D05A94F8CFAA94F401EA0DF11D80818F
S1132840B70190E03DD0A110F6CF332009F45DCE5E
S1132850B70180E290E034D03A94F7CFF701868153
S1132860978102C08FEF9FEF2C96CDBFDEBFDF9123
S1132870CF911F910F91FF90EF90DF90CF90BF9079
S1132880AF909F908F907F906F905F904F903F900C
S11328902F900895FC010590615070400110D8F705
S11328A0809590958E0F9F1F0895FC016150704094
S11328B001900110D8F7809590958E0F9F1F089571
S11328C00F931F93CF93DF93FB01238121FD03C05B
S11328D08FEF9FEF28C022FF16C0468157812481C5
S11328E035814217530744F4A081B1819D012F5FC4
S11328F03F4F208331838C93268137812F5F3F4F55
S11329002683378310C0EB01092F182F0084F1852B
S1132910E02D1995892BE1F68E819F8101968E8396
S11329209F83812F902FDF91CF911F910F91089555
S1132930FA01AA27283051F1203181F1E8946F93EC
S11329406E7F6E5F7F4F8F4F9F4FAF4FB1E03ED092
S1132950B4E03CD0670F781F891F9A1FA11D680F30
S1132960791F8A1F911DA11D6A0F711D811D911D63
S1132970A11D20D009F468943F912AE0269F1124D8
S11329803019305D3193DEF6CF010895462F47703C
S1132990405D4193B3E00FD0C9F7F6CF462F4F7097
S11329A0405D4A3318F0495D31FD4052419302D0F5
S11329B0A9F7EACFB4E0A69597958795779567959B
S11329C0BA95C9F700976105710508959B01AC019B
S11329D00A2E06945795479537952795BA95C9F7C2
S11329E0620F731F841F951FA01D0895F894FFCFD5
S11329F000000002000000002B010000000075042C
S1132A00F503A902AB02D603F802A302AD02AB029E
S1132A1000000003000000000000000000000000AF
S1132A2000000000000000000000000000000000A2
S1132A300000000000000000444959205265666C03
S1132A406F77204F76656E20563100546865416972
S1132A506D6C657373456C656374726F6E0004030B
S1132A600904C4207820000080207C2018200E2037
S1132A7009024300020100C000090400000102022F
S1132A8001000524001001042402020524060001AB
S1132A900524010301070582034000100904010015
S1132AA0020A000000070581024000000705020237
S1132AB0400000001201000202000040EB03042465
S1132AC0000101020301456E61626C696E67205763
S1132AD0726974650D002530327820005465737472
S1132AE0696E672057726974650D00466972737464
S1132AF02045726173650D0052656164203235367C
S1132B0020627974657320746F20636F6E666972D6
S1132B106D2065726173650D005772697465207369
S1132B207472696E670D004561742C20536C656581
S1132B30702C2020202020526176652C2052657054
S1132B406561742E005265616420323536206279E5
S1132B5074657320746F20636F6E6669726D20777D
S1132B60726974650D00446F6E652E205374617430
S1132B7075733A203078253032780D0A0031322EC0
S1092B802E2E4546000064
S9030000FC
